:020000040800F2
:10000000700B0120A9020008CD020008CF020008F1
:100010001D430090D3020008D50200080000000034
:10002000000000000000000000000000D7020008EF
:10003000D902000800000000DB020008DD02000811
:10004000DF020008DF020008DF020008DF0200080C
:10005000DF020008DF020008DF020008DF020008FC
:10006000DF020008DF020008DF020008DF020008EC
:10007000DF020008DF020008DF020008DF020008DC
:10008000DF020008DF020008DF020008DF020008CC
:10009000DF020008DF020008DF020008DF020008BC
:1000A000DF020008DF020008DF020008DF020008AC
:1000B000DF020008DF02000885470090DF02000829
:1000C000DF020008DF020008DF020008DF0200088C
:1000D000DF020008E90A0008DF020008DF0200086A
:1000E000DF020008DF020008DF020008DF0200086C
:1000F000DF020008DF020008DF020008DF0200085C
:10010000DF020008DF020008DF020008DF0200084B
:10011000DF020008DF020008DF020008DF0200083B
:10012000DF020008DF020008DF020008DF0200082B
:10013000DF020008DF020008DF020008DF0200081B
:10014000DF020008DF020008DF020008DF0200080B
:10015000DF020008DF020008DF020008DF020008FB
:10016000DF020008DF020008DF020008DF020008EB
:10017000DF020008DF020008DF020008DF020008DB
:10018000DF020008DF020008DF020008DF020008CB
:10019000DF020008DF020008DF020008DF020008BB
:1001A000DF020008DF020008DF020008DF020008AB
:1001B000DF020008DF020008DF020008DF0200089B
:1001C000DF020008DF02000800F002F800F05CF82F
:1001D0000AA090E8000C82448344AAF10107DA45A2
:1001E00001D100F051F8AFF2090EBAE80F0013F098
:1001F000010F18BFFB1A43F001031847980C0000C9
:10020000B80C00000A444FF0000C10F8013B13F04A
:10021000070408BF10F8014B1D1108BF10F8015B5F
:10022000641E05D010F8016B641E01F8016BF9D152
:1002300013F0080F1EBF10F8014BAD1C0C1B09D1A9
:100240006D1E58BF01F801CBFAD505E014F8016B1B
:1002500001F8016B6D1EF9D59142D6D370470000AD
:100260000023002400250026103A28BF78C1FBD8BF
:10027000520728BF30C148BF0B6070471FB500F060
:1002800003FE1FBD10B510BD00F041F81146FFF789
:10029000F5FF00F0F3FC00F05FF803B4FFF7F2FFA6
:1002A00003BC00F067FC0000DFF84000016841F487
:1002B00070010160BFF34F8FDFF83400016821F057
:1002C00040410160BFF36F8F0A480047FEE7FEE739
:1002D000FEE7FEE7FEE7FEE7FEE7FEE7FEE7FEE7F6
:1002E00005480649044A064B7047000088ED00E0C7
:1002F00034EF00E0C901000870030120700B0120F9
:10030000700301207047704770477047704775460B
:1003100000F02CF8AE4605006946534620F0070071
:10032000854618B020B5FFF7DBFFBDE820404FF051
:1003300000064FF000074FF000084FF0000B21F0CF
:100340000701AC46ACE8C009ACE8C009ACE8C0099C
:10035000ACE8C0098D46704710B50446AFF3008085
:100360002046BDE81040FFF798BF000000487047E6
:100370000C03012043F2CD7CC9F2000C604744F22B
:10038000052CC9F2000C604744F27D3CC9F2000C18
:10039000604740F6E11CC9F2000C604743F2556C1F
:1003A000C9F2000C604744F6590CC9F2000C6047D2
:1003B00044F61F0CC9F2000C6047000010B500F0B5
:1003C00089FA00F039FA0348006840F00400014956
:1003D000086010BD9CEF00E030B5CC1000F12003A8
:1003E00053F824304C07E50E0F24AC40A343CD1046
:1003F00000F1200444F82530CC1000F1200353F81C
:1004000024304C07E40E02FA04F42343CD1000F12B
:10041000200444F8253030BD02461069084008B178
:10042000012070470020FCE702F001030BB181615D
:1004300001E00B04836170472DE9F0470C46DDE9CC
:100440000867002100258C4600BF60E04FF00108DE
:1004500008FA01F504EA050CAC4557D1D0F8008044
:100460004FEA410A4FF0030909FA0AF928EA090894
:10047000C0F80080D0F800804FEA410902FA09F97B
:1004800048EA0908C0F80080012A01D0022A27D1D1
:10049000D0F808804FEA410A4FF0030909FA0AF937
:1004A00028EA0908C0F80880D0F808804FEA410916
:1004B00006FA09F948EA0908C0F80880D0F804905B
:1004C0004FF0010808FA01F829EA0809C0F8049079
:1004D000D0F8048003FA01F948EA0908C0F804805A
:1004E000D0F80C804FEA410A4FF0030909FA0AF9E3
:1004F00028EA0908C0F80C80D0F80C804FEA4109BE
:1005000007FA09F948EA0908C0F80C80491C1029C3
:100510009CD3BDE8F08700002DE9F04107468846EE
:1005200014461D46284600F033F8C5F1040007FACA
:1005300000F60F20284100EA0800064306F00F06E7
:10054000E21704EBD2625211920002F1E022D2F8DB
:1005500000212146E31704EBD3635B11A4EB431C9A
:10056000012303FA0CF31A432046E31704EBD36389
:100570005B119B0003F1E023C3F800210348005DF9
:1005800040EA061001490855BDE8F08100E400E0AA
:100590000146072323EA01021202054B18684FF6B1
:1005A000FF031840034B18431043014B186070477A
:1005B0000CED00E00000FA054A0A52020243014B2A
:1005C0001A60704708ED00E03CB50024914D924858
:1005D000006840F00200904908600846006840F05A
:1005E000200008608C480830006840F002008A490A
:1005F000083108600120032100230222CDE9001008
:1006000004218648FFF718FF01200321002302225E
:10061000CDE9001040218148FFF70EFF01200321A2
:1006200000230222CDE900104FF470717C48FFF7DF
:1006300003FF092202217948FFF7CEFE0A22062194
:100640007648FFF7C9FE092206217548FFF7C4FE68
:10065000092207217248FFF7BFFE0A2208217048CD
:10066000FFF7BAFE0A2209216D48FFF7B5FE6A4876
:100670001838006840F002006749183908600846D9
:10068000006820F00200086000BF624820388068DF
:1006900000F020000028F8D162485E492039086047
:1006A000614848600846006840F00100086000BFEB
:1006B00058482038806800F020000028F8D14FF416
:1006C0009C7054492039486100BF524820388068E6
:1006D00000F002000028F8D04E482038C06840F0F2
:1006E00002004C492039C86000BF4A482038806861
:1006F00000F020000028F8D14FF4837045492039DC
:10070000486100BF43482038806800F0020000289C
:10071000F8D040482038C06840F002003D492039F8
:10072000C86000BF3B482038806800F020000028E7
:10073000F8D13E483749203948610020086100BFA0
:1007400034482038806800F004000028F8D03020B9
:10075000287030482038006840F004002D492039C6
:10076000086000BF2B482038806800F00200002895
:10077000F8D028482038C06840F0020025492039C8
:10078000C86000BF23482038806800F0200000289F
:10079000F8D100BF1F482038806800F020000028F2
:1007A000F8D11C492039C861EB2444F4407444F466
:1007B000406444F4005444F4404400BF44F4C01482
:1007C00044F0407444F040640846446118480068AE
:1007D00020F480301649086015487030006820F019
:1007E00001001349703108600020091D08604FF0B6
:1007F0001040091D08600F48091D086005200C49BC
:10080000703108600A48006840F480300849086088
:100810003CBD0000201000A030380240000402401F
:10082000001402401003000101041600C00300037D
:1008300024ED00E02D00030310B50023234C2360BA
:1008400000BF00BF00BFBFF34F8F00BF00BF00BF9E
:10085000231F1868C0F34E3100BFC0F3C90200BFA8
:1008600043F6E07303EA41134FF0404404EA827414
:100870002343174C236000BF00BF131EA2F10102E7
:10088000EED10B1EA1F10101E7D100BF00BF00BFF7
:10089000BFF34F8F00BF00BF00BF0C4B703B1B6806
:1008A00043F48033094C703C236000BF00BF00BF9D
:1008B000BFF34F8F00BF00BF00BF00BF00BF00BF2E
:1008C000BFF36F8F00BF00BF00BF10BD84ED00E01D
:1008D00060EF00E000BF00BF00BFBFF34F8F00BF5D
:1008E00000BF00BF00BF00BF00BFBFF36F8F00BFDE
:1008F00000BF00BF00201449086000BF00BF00BF58
:10090000BFF34F8F00BF00BF00BF00BF00BF00BFDD
:10091000BFF36F8F00BF00BF00BF0C48006840F4FA
:1009200000300A49086000BF00BF00BFBFF34F8F0F
:1009300000BF00BF00BF00BF00BF00BFBFF36F8F8D
:1009400000BF00BF00BF704750EF00E014ED00E0B3
:100950002DE9F04104460D4616461F46164800682C
:1009600040F0010014490860002013490831086074
:1009700011480068114908400F4908601048091DD6
:100980000860081F006820F48020091F086000200C
:1009900009490C310860FFF717FEFFF70FFD3B46D2
:1009A00032462946204600F00DF800214FF0006045
:1009B000FFF702FEBDE8F08100380240FFFFF6FEBF
:1009C00010300024F0B504460D46002100203F4EB3
:1009D000366846F480363D4F3E6001E04E1CB1B2B1
:1009E0003A4E366806F400361EB941F6FF76B1423B
:1009F000F4DB41F6FF76B14201D1012065E0334ED0
:100A00004036366846F08056304F40373E60304EB4
:100A1000366846F440462E4F3E603E46366846F401
:100A200080363E603E46366846F400363E60274ECD
:100A30000836366846F41446244F08373E60234E85
:100A4000366826F08076214F3E6045EA84160127FD
:100A5000C7EB520746EA074646EA036646F48006B5
:100A60001A4F3F1D3E603E1F366846F080763F1F9E
:100A70003E6000BF154E366806F00076002EF9D0B5
:100A8000144E366846F48076124F3E603E46366815
:100A900046F400763E603E46366846F007063E6005
:100AA0000A4E0836366826F00306084F08373E60BF
:100AB0003E46366846F002063E6000BF034E0836EA
:100AC000366806F00C06082EF8D1F0BD003802405A
:100AD00000700040003C0240014802490860704735
:100AE0000400FA050CED00E01F49C96901F020017E
:100AF00009B31D49496AC8B21C49098801F400417B
:100B0000C9B91A49098801F4804161B10A2803D0A2
:100B10000021164A118020E01449098841F400415F
:100B2000124A118019E00D2806D11049098841F4B4
:100B300080410E4A118010E00C490988C1F30D0173
:100B40000B4A505409490988491C084A118011462A
:100B50000988C72901DD002111800349096A41F094
:100B60000801014A1162704700100140080001208D
:100B70001402012000BF70474FF0E021096921F005
:100B800004014FF0E0221161C21700EB5272C2F370
:100B9000C702054B1A704FF47A714143C1F3CF017C
:100BA000024A11807047000000000120020001206D
:100BB00070B504464FF4077094FBF0F0C6B24FF4E2
:100BC000077094FBF0F100FB114085B205E04FF493
:100BD000077000F027F8701EC6B2002EF7D115B1CD
:100BE000284600F01FF870BD01460D4A12784A43AE
:100BF0004FF0E0235A6100229A6101221A6100BF7E
:100C00004FF0E022106900F001021AB100F48032C6
:100C1000002AF5D000224FF0E0231A619A61704754
:100C20000000012001460D4A12884A434FF0E0239C
:100C30005A6100229A6101221A6100BF4FF0E0223E
:100C4000106900F001021AB100F48032002AF5D0D8
:100C500000224FF0E0231A619A61704702000120E0
:100C600000BF054AD26902F04002002AF9D0C2B2A0
:100C7000014B9A6270470000001001401CB501262C
:100C8000002400254FF47F003E49086000124860B0
:100C9000FF2088604FF6FF70C860000208614FF0C7
:100CA000FF1048616FF07F408861092302221921FB
:100CB0004FF4D870FFF74CFED820FFF75DFF4FF4DC
:100CC000E1316C2000F082F82F4841686C208847A1
:100CD000FFF750FBFFF753FBFFF756FBFFF759FBFE
:100CE0004FF478402949086029A010210B46C822FA
:100CF000CDE9001032211E20FFF750FB28A0102163
:100D00000B46C822CDE9001046211E20FFF746FB06
:100D100026A010210B46C822CDE900105A211E2022
:100D2000FFF73CFB25A010210B46C822CDE900109F
:100D30006E211E20FFF732FBFFF735FB20E086F027
:100D400001000646024602211F48FFF76DFB002501
:100D50000FE02046611CCCB2072190FBF1F201FBB1
:100D60001200084951F820703846FFF721FB681C33
:100D7000C5B2042DEDDBE01EC4B29620FFF718FFCC
:100D8000DDE70000F801012004010120100001202E
:100D9000504F4C415249532053544D3332000000C0
:100DA00055534D41525420544553540041544F4DD6
:100DB00040414C49454E54454B00000032303139DA
:100DC0002F352F3234000000000402407CB5054668
:100DD0000C462948684300EB5400B0FBF4F6274862
:100DE000006840F00100254908602448143000687C
:100DF00040F0100021491431086001200221002335
:100E00000A46CDE900104FF4C0611D48FFF714FBFE
:100E1000072209211A48FFF7DFFA07220A2118489A
:100E2000FFF7DAFA1748C66000201649086008463E
:100E300000680860084600680860084600680860A6
:100E40000846006840F0080008600846006840F066
:100E5000040008600846006840F020000860022393
:100E6000252203210846FFF757FB0648006840F09B
:100E70000100044908607CBD40420F003038024048
:100E800000000240001001404FF04070E1EE100AF7
:100E900070470000B40E000800000120F8010000B7
:100EA00004020008940F0008F801012078090000EE
:100EB00060020008A1123A62142AFF01811334A4CF
:100EC0001B9048041A50041A3C041A58041A380497
:100ED0001A400413D5481490F8A51490395A1B9061
:100EE000680813B10B14085CA71B90E9081A740872
:100EF0001BC1043812A6149071091B90EC081389C9
:100F0000061B90BC381375071B9084081AB5081A85
:100F1000D03813C1351B9030081355361B908C0800
:100F2000134D081B902C4013AD2F149070A81C90EB
:100F300009052019401ABB201AF0381389411B906B
:100F4000E82013013F129019201A7D101A28081367
:100F5000F5381B9010281321391B9088081A2D187A
:100F60001A4C181A71101AB4101A61301A8C381AE7
:100F700039281A6C101ADDC02A5CD811150120AD71
:100F8000501B90F11013A14914901D512390190288
:040F9000DC01000080
:0200000490006A
:10000000642900F06B80752900F06880782900F081
:10001000A180632900F0F181732900F0F6810020AE
:10002000704700000FB4044910B503AA029800F00D
:10003000F1F910BC5DF814FB0400012070B5044612
:1000400085690068C10601D5302600E02026C0077A
:1000500007D070BDD4E9012130469047206A401C8A
:1000600020626D1EF6D570BD70B5044685690078B6
:10007000C00707D170BDD4E9012120209047206A34
:10008000401C20626D1EF6D570BD70B50C4605464D
:10009000012A05D02878800600D5EA69002302E00D
:1000A000012305E05B1C934202D2E05C0028F9D1F9
:1000B000A869E618C01AA861286A18442862284668
:1000C000FFF7BCFF04E0D5E9012114F8010B9047CC
:1000D000B442F8D32846FFF7C7FF70BD2DE9F041C1
:1000E0000646002410687529314616A510D0AFF3D6
:1000F0000080002802DA404213A507E031688A0731
:1001000001D512A502E0490704D511A5012401E09B
:10011000AFF3008000210A2206F1240709E0B0FBBA
:10012000F2FCB0FBF2F302FB1C00303078541846AE
:10013000491C0028F3D123462A463046BDE8F04149
:1001400000F0F8B8000000002D0000002B000000B7
:100150002000000070B504460D4621461068AFF33C
:1001600000802188090502D50F4A7A4402E00E4A30
:100170007A440E32002104F1240305E000F00F065A
:100180000009965D5E54491C0028F7D120780023B1
:10019000000704D5702D02D009B102231132204688
:1001A000BDE8704000F0C6B88AA200002DE9F05FFB
:1001B000894604464FF0000ADFF874B1FB44C0F8EA
:1001C00020A02046E1688847002874D0252806D062
:1001D000D4E901219047206A401C2062F1E7002603
:1001E0005F462046E16888472028054607DB312D19
:1001F00005D2781910F8200C08B10643F1E7B007D2
:1002000001D526F00406C4F81CA00027C4F818A0E5
:100210002A2D09D0284604F04FFB38B304EB870899
:10022000303DC8F8185019E059F8041B204604EB7B
:1002300087029161E1688847012F054618D1E0697E
:10024000002820DA26F020061DE0D8F8180000EB80
:10025000800005EB40003038C8F818002046E168FF
:100260008847054604F028FB0028EED1012F0AD06C
:100270002E2D08D12046E16888477F1C0546022FB5
:1002800046F02006C4DBA069002803DA404246F0AD
:100290000106A061F00701D026F010066C2D0BD0EE
:1002A000682D09D04C2D39D06A2D35D0742D35D01C
:1002B0007A2D33D016E038E0E1682F462046884793
:1002C000B842054609D16C2F26D04FF48060E16812
:1002D000064320468847054604E06C2F1AD04FF4A9
:1002E000807006430DB3A5F14100192802D82035CE
:1002F00046F400664A462946204626604E46FFF7E9
:100300007FFE80B101280BD0F61D26F0070000F11A
:10031000080956E74020E4E78020D8E70020D6E728
:1003200006F104094DE7284652E7206ABDE8F09F30
:1003300060A200002DE9F0470D469946924604461A
:1003400000F124080168880604D5E06921F0100155
:10035000216000E00120A84201DD471B00E00027EA
:10036000A1697A1902EB0900081AA0612078C00679
:1003700002D42046FFF762FE002608E0D4E90121FE
:100380001AF806009047206A401C761C20624E45F1
:10039000F4DB2078C0060AD52046FFF74FFE06E0C2
:1003A000D4E9012130209047206A401C2062381E89
:1003B000A7F10107F4DC07E0D4E9012118F80500F2
:1003C0009047206A401C2062281EA5F10105F3DC3D
:1003D0002046FFF749FE2078000602D50220BDE83E
:1003E000F0870120FBE710B5436913B1AFF300803C
:1003F00001E0FFF74AFE012010BD127800F1240150
:100400000A7000224A700122EDE711684FF0FF32B6
:10041000E9E70000074B70B50D467B4400F011F88A
:100420000446284600F020F810B14FF0FF3070BDB0
:10043000204670BD4308007801694A1C02610878B3
:10044000704700B58FB0CDE9013100210591054914
:100450007944CDE9031011466846FFF7A7FE0FB0B7
:1004600000BD0000E5FFFFFF007B00F0800070474B
:1004700040F2394CC0F6000C604740F2D93CC0F65F
:10048000000C604740F6B13CC0F6000C604740F6F7
:10049000E93CC0F6000C604740F2294CC0F6000C65
:1004A000604740F2194CC0F6000C604740F6D92C6A
:1004B000C0F6000C604740F2195CC0F6000C6047C3
:1004C00070B5044600260D4805880D48006818B12F
:1004D000204603F0B1F90FE0084840884543002169
:1004E000084602F033FF03F05FF9002602E00549F9
:1004F0000C80761CAE42FAD370BD0000DC020120F5
:10050000EC0201200000086010B504465C488471CC
:100510005C48006850B1204603F0ECF95948C08AA5
:10052000574908805748008B488010BD002C51D196
:10053000F020534908804FF4A07048800846808816
:1005400049F24131884205D04D48808845F210314A
:10055000884214D12C204A4908812A2048812B2026
:1005600088810846808845F21031884206D14FF4D0
:10057000A070434908804FF4F07048807BE0404809
:10058000808845F21051884210D14FF430503C49D8
:1005900008814FF4285048814FF42C5088814FF443
:1005A000F07008804FF44870488064E034488088D8
:1005B00041F6631188425ED12C20314908812B20FD
:1005C00048812A2088814FF4F07008804FF44870E9
:1005D000488050E04FF4A07029490880F0204880FE
:1005E0000846808849F24131884205D024488088F5
:1005F00045F21031884207D12C20214908812A2058
:1006000048812B20888129E01D48808845F21051BF
:10061000884210D14FF43050194908814FF42850C6
:1006200048814FF42C5088814FF4487008804FF473
:10063000F070488012E01248808841F663118842C9
:100640000CD12C200E4908812A2048812B2088813A
:100650004FF4487008804FF4F07048800848808854
:1006600045F21031884206D14FF4F07004490880F9
:100670004FF4A0704880002002F02EFD00BF54E728
:10068000DC020120EC0201202DE9FF4F85B08146FC
:100690008A460020049003900798A0EB090508986B
:1006A000A0EB0A06CDF80890CDF804A0002D01DDDE
:1006B000012705E00DB9002702E04FF0FF376D423A
:1006C000002E02DD4FF0010806E016B94FF00008D9
:1006D00002E04FF0FF387642B54201DD2C4600E0E3
:1006E00034464FF0000B21E0019A91B2029A90B289
:1006F00000F022F8049828440490039830440390B2
:100700000498A04205DD0498001B04900298384428
:1007100002900398A04205DD0398001B0390019806
:10072000404401900BF101001FFA80FB601C8345DF
:10073000DADD09B0BDE8F08F70B504460D460A4811
:10074000006830B1094829460268204603F0E8F8FD
:1007500009E02946204602F0F9FD03F025F8034898
:1007600000880349088070BDEC02012010000120C0
:10077000000008602DE9F04104460D4616461F466C
:100780002B46324629462046FFF77EFF3B4622464F
:1007900029462046FFF778FF3B4632463946204639
:1007A000FFF772FF3B46324629463046FFF76CFFA3
:1007B000BDE8F0812DE9F04706460F46904600243B
:1007C00045460320A0EB48093CE07A1B91B2321960
:1007D00090B2FFF7B1FF3A1B91B2721990B2FFF7D6
:1007E000ABFF3A1991B2721990B2FFF7A5FF7A19CF
:1007F00091B2321990B2FFF79FFF7A1991B2321B72
:1008000090B2FFF799FF3A1991B2721B90B2FFF7BD
:1008100093FF7A1B91B2321B90B2FFF78DFF3A1B08
:1008200091B2721B90B2FFF787FF641CB9F1000F01
:1008300003DAA000801D814404E0601B80000A30C0
:1008400081446D1EAC42C0DDBDE8F08770B5044642
:100850000D4616464348006828B1324629462046D0
:1008600003F05EF870BD4048808849F2413188420B
:1008700005D03D48808845F21031884214D13A496C
:10088000488902F085FF201202F076FFE0B202F004
:1008900073FF3549888902F07BFF281202F06CFF54
:1008A000E8B202F069FF54E02F48808845F2105109
:1008B000884220D12C49488902F06AFF201202F0B8
:1008C0005BFF29494989491C88B202F061FFE0B207
:1008D00002F052FF2449888902F05AFF281202F0E0
:1008E0004BFF21498989491C88B202F051FFE8B2C7
:1008F00002F042FF2DE01C48808841F663118842D7
:1009000027D11948807920B917480088401E001B5C
:1009100084B21549488902F03BFF201202F02CFFF7
:10092000E0B202F029FF201202F026FFE0B202F04E
:1009300023FF0D49888902F02BFF281202F01CFFCB
:10094000E8B202F019FF281202F016FFE8B202F036
:1009500013FF0548008905490880891C0E8000BFE7
:1009600080E70000EC020120DC020120FEFF0760AE
:100970002DE9F84F05460E4617469846DDF82890B3
:100980004FF0000B1448006840B143463A463146E8
:100990002846CDF8009002F0EBFF1BE0781B401CCE
:1009A0001FFA80FB344613E02146284602F0CEFCB5
:1009B00002F0FAFE4FF0000A06E00849A1F80090A4
:1009C0000AF101001FFA80FADA45F6DB601C84B2F6
:1009D0004445E9DDBDE8F88FEC0201200000086025
:1009E0001CB503F04FFBFE4988800846808840B163
:1009F00008468188FBA0FFF715FB03F05DF802F0C5
:100A000076BAFC48006840F00200FA4908600846DF
:100A1000006840F018000860F6480830006840F0B0
:100A20000100F44908310860012003210023024637
:100A3000CDE900102021F048FFF71AFD0120032125
:100A400000230222CDE900104EF2B371EB48FFF70C
:100A50000FFD0120032100230222CDE900104FF6F3
:100A60008071E748FFF704FD0C220021E348FFF7FF
:100A700004FD0C220121E148FFF7FFFC0C220421B8
:100A8000DE48FFF7FAFC0C220521DC48FFF7F5FCF5
:100A90000C220721D948FFF7F0FC0C220821D74887
:100AA000FFF7EBFC0C220921D448FFF7E6FC0C22EF
:100AB0000A21D248FFF7E1FC0C220D21CF48FFF7B5
:100AC000DCFC0C220E21CD48FFF7D7FC0C220F21B5
:100AD000CA48FFF7D2FC0C220721C948FFF7CDFC1A
:100AE0000C220821C648FFF7C8FC0C220921C44883
:100AF000FFF7C3FC0C220A21C148FFF7BEFC0C2201
:100B00000B21BF48FFF7B9FC0C221146BC48FFF788
:100B1000B4FC0C220D21BA48FFF7AFFC0C220E21C9
:100B2000B748FFF7AAFC0C220F21B548FFF7A5FC38
:100B300000204FF0204108604860B24908604FF043
:100B40002040006840F480504FF020410860084683
:100B5000006840F4804008600846006840F01000DB
:100B600008600846406848600846406840F00F004A
:100B700048600846406840F4A0404860A1480068CA
:100B8000C1F804010846D0F8040140F00F00C1F894
:100B900004010846D0F8040140F47060C1F8040173
:100BA0000846006840F0010008603220FFF76AFC48
:100BB000D32002F0EDFD02F0EFF98949888002F0C0
:100BC000EBF98749888002F0E7F985498880084673
:100BD00080884FF6FF7101EA00208149888002F089
:100BE000DBF97F49898808437D49888008468088E9
:100BF00049F24131884278D0D42002F0C9FD02F098
:100C0000CBF97749888002F0C7F97549888002F0EE
:100C1000C3F973498880084680884FF6FF7101EA5E
:100C200000206F49888002F0B7F96D498988084330
:100C30006B4988800846808845F21031884254D03C
:100C40004FF45A4002F0A4FD02F0A6F964498880EE
:100C50004FF45B4002F09CFD02F09EF960498880F1
:100C6000084680884FF6FF7101EA00205C498880C1
:100C70004FF45C4002F08CFD02F08EF958498988EF
:100C800008435749888008468088B0F5004F02D154
:100C900045F2105088805248808845F210518842B1
:100CA00023D0A12002F074FD02F076F94C4988802F
:100CB00002F072F94A498880084680884FF6FF7131
:100CC00001EA00204649888002F066F94449898893
:100CD0000843434988800846808845F2617188420C
:100CE00003D141F663103E4988803D4881883DA08C
:100CF000FFF798F93A48808849F2413188426DD12E
:100D0000CF2002F045FD002002F036FDC12002F0A8
:100D100033FD302002F030FDED2002F039FD64207B
:100D200002F02AFD032002F027FD122002F024FD2C
:100D3000812002F021FDE82002F02AFD852002F04A
:100D40001BFD102002F018FD7A2002F015FDCB20CB
:100D500002F01EFD392002F00FFD2C2002F00CFDE8
:100D6000002002F009FD342002F006FD022002F00E
:100D700003FDF72002F00CFD202002F0FDFCEA202C
:100D800002F006FD002002F0F7FC002002F0F4FC67
:100D9000C02002F0FDFC1B2002F0EEFCC12002F09E
:100DA000F7FC012002F0E8FCC52002F0F1FC302045
:100DB00002F0E2FC302002F0DFFCC72002F0E8FC89
:100DC000B72002F0D9FC362002F0E2FC482002F005
:100DD000D3FC3A2002F0DCFC552015E0BCE000001A
:100DE000DC020120204C43442049443A25780D0A76
:100DF000000000003038024000040240000C0240B5
:100E000000100240040100A002F0B6FCB12002F084
:100E1000BFFC002002F0B0FC1A2002F0ADFCB620AE
:100E200002F0B6FC0A2002F0A7FCA22002F0A4FC0B
:100E3000F22002F0ADFC002002F09EFC262002F021
:100E4000A7FC012002F098FCE02002F0A1FC0F209A
:100E500002F092FC2A2002F08FFC282002F08CFC89
:100E6000082002F089FC0E2002F086FC082002F027
:100E700083FC542002F080FCA92002F07DFC43207A
:100E800002F07AFC0A2002F077FC0F2002F074FCDA
:100E9000002002F071FC002002F06EFC002002F045
:100EA0006BFC002002F068FCE12002F071FC0020E5
:100EB00002F062FC152002F05FFC172002F05CFCDF
:100EC000072002F059FC112002F056FC062002F027
:100ED00053FC2B2002F050FC562002F04DFC3C202D
:100EE00002F04AFC052002F047FC102002F044FC0E
:100EF0000F2002F041FC3F2002F03EFC3F2002F0B8
:100F00003BFC0F2002F038FC2B2002F041FC0020BB
:100F100002F032FC002002F02FFC012002F02CFC39
:100F20003F2002F029FC2A2002F032FC002002F0CF
:100F300023FC002002F020FC002002F01DFCEF202A
:100F400002F01AFC112002F023FC7820FFF79AFA35
:100F5000292002F01DFC52E5FE48808845F2103140
:100F6000884240F07C87ED2002F012FC012002F064
:100F700003FCFE2002F000FCEE2002F009FCDE2063
:100F800002F0FAFB212002F0F7FBF12002F000FC56
:100F9000012002F0F1FBDF2002F0FAFB102002F04A
:100FA000EBFBC42002F0F4FB8F2002F0E5FBC6202F
:100FB00002F0EEFB002002F0DFFBE22002F0DCFB9F
:100FC000E22002F0D9FBE22002F0D6FBBF2002F0C3
:100FD000DFFBAA2002F0D0FBB02002F0D9FB0D20ED
:100FE00002F0CAFB002002F0C7FB0D2002F0C4FB98
:100FF000002002F0C1FB112002F0BEFB002002F035
:10100000BBFB192002F0B8FB002002F0B5FB212049
:1010100002F0B2FB002002F0AFFB2D2002F0ACFB8F
:10102000002002F0A9FB3D2002F0A6FB002002F008
:10103000A3FB5D2002F0A0FB002002F09DFB5D20E1
:1010400002F09AFB002002F097FBB12002F0A0FB17
:10105000802002F091FB002002F08EFB8B2002F03A
:101060008BFB002002F088FB962002F085FB00201D
:1010700002F082FBB22002F08BFB002002F07CFB2E
:10108000002002F079FB022002F076FB002002F043
:1010900073FB032002F070FB002002F06DFBB32015
:1010A00002F076FB002002F067FB002002F064FBF8
:1010B000002002F061FB002002F05EFB002002F045
:1010C0005BFB002002F058FB002002F055FB0020E3
:1010D00002F052FB002002F04FFB002002F04CFB1C
:1010E000002002F049FB002002F046FB002002F045
:1010F00043FB002002F040FB002002F03DFB0020FB
:1011000002F03AFB002002F037FB002002F034FB33
:10111000002002F031FB002002F02EFB002002F044
:101120002BFB002002F028FB002002F025FB002012
:1011300002F022FBB42002F02BFB8B2002F01CFB00
:10114000002002F019FB962002F016FB002002F0AE
:1011500013FBA12002F010FB002002F00DFBB520D4
:1011600002F016FB022002F007FB002002F004FB55
:10117000032002F001FB002002F0FEFA042002F03E
:10118000FBFA002002F0F8FAB62002F001FB002082
:1011900002F0F2FA002002F0EFFAB72002F0F8FABB
:1011A000002002F0E9FA002002F0E6FA3F2002F007
:1011B000E3FA002002F0E0FA5E2002F0DDFA0020FF
:1011C00002F0DAFA642002F0D7FA002002F0D4FA32
:1011D0008C2002F0D1FA002002F0CEFAAC2002F00E
:1011E000CBFA002002F0C8FADC2002F0C5FA002099
:1011F00002F0C2FA702002F0BFFA002002F0BCFA3E
:10120000902002F0B9FA002002F0B6FAEB2002F0CA
:10121000B3FA002002F0B0FADC2002F0ADFA0020B0
:1012200002F0AAFAB82002F0B3FA002002F0A4FA01
:10123000002002F0A1FA002002F09EFA002002F045
:101240009BFA002002F098FA002002F095FA0020A4
:1012500002F092FA002002F08FFABA2002F098FA17
:10126000242002F089FA002002F086FA002002F021
:1012700083FA002002F080FAC12002F089FA2020CF
:1012800002F07AFA002002F077FA542002F074FAA1
:10129000002002F071FAFF2002F06EFA002002F046
:1012A0006BFAC22002F074FA0A2002F065FA0020FC
:1012B00002F062FA042002F05FFA002002F05CFA09
:1012C000C32002F065FA3C2002F056FA002002F03A
:1012D00053FA3A2002F050FA002002F04DFA392079
:1012E00002F04AFA002002F047FA372002F044FAEE
:1012F000002002F041FA3C2002F03EFA002002F009
:101300003BFA362002F038FA002002F035FA32209B
:1013100002F032FA002002F02FFA2F2002F02CFA0D
:10132000002002F029FA2C2002F026FA002002F018
:1013300023FA292002F020FA002002F01DFA2620CC
:1013400002F01AFA002002F017FA242002F014FA30
:10135000002001E0DC02012002F00EFA242002F05D
:101360000BFA002002F008FA232002F005FA002010
:1013700002F002FA3C2002F0FFF9002002F0FCF932
:10138000362002F0F9F9002002F0F6F9322002F0DE
:10139000F3F9002002F0F0F92F2002F0EDF900201F
:1013A00002F0EAF92C2002F0E7F9002002F0E4F95B
:1013B000292002F0E1F9002002F0DEF9262002F0F7
:1013C000DBF9002002F0D8F9242002F0D5F9002042
:1013D00002F0D2F9242002F0CFF9002002F0CCF97B
:1013E000232002F0C9F9002002F0C6F9C42002F05F
:1013F000CFF9622002F0C0F9002002F0BDF905200B
:1014000002F0BAF9002002F0B7F9842002F0B4F932
:10141000002002F0B1F9F02002F0AEF9002002F055
:10142000ABF9182002F0A8F9002002F0A5F9A420D9
:1014300002F0A2F9002002F09FF9182002F09CF9B6
:10144000002002F099F9502002F096F9002002F0F5
:1014500093F90C2002F090F9002002F08DF917208A
:1014600002F08AF9002002F087F9952002F084F951
:10147000002002F081F9F32002F07EF9002002F052
:101480007BF9E62002F078F9002002F075F9C5201A
:1014900002F07EF9322002F06FF9002002F06CF9C0
:1014A000442002F069F9002002F066F9652002F09C
:1014B00063F9002002F060F9762002F05DF9002067
:1014C00002F05AF9882002F057F9002002F054F98E
:1014D000C62002F05DF9202002F04EF9002002F053
:1014E0004BF9172002F048F9002002F045F90120DD
:1014F00002F042F9002002F03FF9C72002F048F95B
:10150000002002F039F9002002F036F9002002F044
:1015100033F9002002F030F9C82002F039F9002038
:1015200002F02AF9002002F027F9002002F024F945
:10153000002002F021F9C92002F02AF9002002F06F
:101540001BF9002002F018F9002002F015F9002024
:1015500002F012F9002002F00FF9002002F00CF95D
:10156000002002F009F9002002F006F9002002F044
:1015700003F9002002F000F9002002F0FDF800203D
:1015800002F0FAF8002002F0F7F8002002F0F4F878
:10159000002002F0F1F8002002F0EEF8E02002F066
:1015A000F7F8162002F0E8F8002002F0E5F81C2019
:1015B00002F0E2F8002002F0DFF8212002F0DCF86F
:1015C000002002F0D9F8362002F0D6F8002002F010
:1015D000D3F8462002F0D0F8002002F0CDF85220D7
:1015E00002F0CAF8002002F0C7F8642002F0C4F844
:1015F000002002F0C1F87A2002F0BEF8002002F0CC
:10160000BBF88B2002F0B8F8002002F0B5F8992062
:1016100002F0B2F8002002F0AFF8A82002F0ACF817
:10162000002002F0A9F8B92002F0A6F8002002F08C
:10163000A3F8C42002F0A0F8002002F09DF8CA2010
:1016400002F09AF8002002F097F8D22002F094F805
:10165000002002F091F8D92002F08EF8002002F06C
:101660008BF8E02002F088F8002002F085F8F320E3
:1016700002F082F8002002F07FF8E12002F088F802
:10168000162002F079F8002002F076F81C2002F013
:1016900073F8002002F070F8222002F06DF80020AC
:1016A00002F06AF8362002F067F8002002F064F8D1
:1016B000452002F061F8002002F05EF8522002F0AE
:1016C0005BF8002002F058F8642002F055F8002082
:1016D00002F052F87A2002F04FF8002002F04CF8A5
:1016E0008B2002F049F8002002F046F8992002F021
:1016F00043F8002002F040F8A82002F03DF8002056
:1017000002F03AF8B92002F037F8002002F034F87D
:10171000C42002F031F8002002F02EF8CA2002F0B6
:101720002BF8002002F028F8D22002F025F8002043
:1017300002F022F8D82002F01FF8002002F01CF876
:10174000E02002F019F8002002F016F8F32002F071
:1017500013F8002002F010F8E22002F019F805203A
:1017600002F00AF8002002F007F80B2002F004F85B
:10177000002002F001F81B2001F0FEFF002001F024
:10178000FBFF342001F0F8FF002001F0F5FF4420BA
:1017900001F0F2FF002001F0EFFF4F2001F0ECFF1D
:1017A000002001F0E9FF612001F0E6FF002001F0D8
:1017B000E3FF792001F0E0FF002001F0DDFF882049
:1017C00001F0DAFF002001F0D7FF972001F0D4FFED
:1017D000002001F0D1FFA62001F0CEFF002001F093
:1017E000CBFFB72001F0C8FF002001F0C5FFC220E9
:1017F00001F0C2FF002001F0BFFFC72001F0BCFFD5
:10180000002001F0B9FFD12001F0B6FF002001F067
:10181000B3FFD62001F0B0FF002001F0ADFFDD20C6
:1018200001F0AAFF002001F0A7FFF32001F0A4FFC0
:10183000002001F0A1FFE32001F0AAFF052001F044
:101840009BFF002001F098FF0A2001F095FF002087
:1018500001F092FF1C2001F08FFF002001F08CFFAF
:10186000332001F089FF002001F086FF442001F0C1
:1018700083FF002001F080FF502001F07DFF002059
:1018800001F07AFF622001F077FF002001F074FF81
:10189000782001F071FF002001F06EFF882001F038
:1018A0006BFF002001F068FF972001F065FF00202A
:1018B00001F062FFA62001F05FFF002001F05CFF55
:1018C000B72001F059FF002001F056FFC22001F0BF
:1018D00053FF002001F050FFC72001F04DFF002012
:1018E00001F04AFFD12001F047FF002001F044FF42
:1018F000D52001F041FF002001F03EFFDD2001F086
:101900003BFF002001F038FFF32001F035FF0020FD
:1019100001F032FFE42001F03BFF012001F02CFF39
:10192000002001F029FF012001F026FF002001F036
:1019300023FF022001F020FF002001F01DFF2A20DC
:1019400001F01AFF002001F017FF3C2001F014FF06
:10195000002001F011FF4B2001F00EFF002001F0EC
:101960000BFF5D2001F008FF002001F005FF74204F
:1019700001F002FF002001F0FFFE842001F0FCFED8
:10198000002001F0F9FE932001F0F6FE002001F0A6
:10199000F3FEA22001F0F0FE002001F0EDFEB320E6
:1019A00001F0EAFE002001F0E7FEBE2001F0E4FEB7
:1019B000002001F0E1FEC42001F0DEFE002001F075
:1019C000DBFECD2001F0D8FE002001F0D5FED320B3
:1019D00001F0D2FE002001F0CFFEDD2001F0CCFEB0
:1019E000002001F0C9FEF32001F0C6FE002001F046
:1019F000C3FEE52001F0CCFE002001F0BDFE00207A
:101A000001F0BAFE002001F0B7FE002001F0B4FEA4
:101A1000022001F0B1FE002001F0AEFE292001F00D
:101A2000ABFE002001F0A8FE3C2001F0A5FE002046
:101A300001F0A2FE4B2001F09FFE002001F09CFE71
:101A40005D2001F099FE002001F096FE742001F067
:101A500093FE002001F090FE842001F08DFE002016
:101A600001F08AFE932001F087FE002001F084FE41
:101A7000A22001F081FE002001F07EFEB32001F0E3
:101A80007BFE002001F078FEBE2001F075FE0020F4
:101A900001F072FEC42001F06FFE002001F06CFE28
:101AA000CD2001F069FE002001F066FED32001F098
:101AB00063FE002001F060FEDC2001F05DFE0020EE
:101AC00001F05AFEF32001F057FE002001F054FE11
:101AD000E62001F05DFE112001F04EFE002001F035
:101AE0004BFE342001F048FE002001F045FE562058
:101AF00001F042FE002001F03FFE762001F03CFEA6
:101B0000002001F039FE772001F036FE002001F0C0
:101B100033FE662001F030FE002001F02DFE88200B
:101B200001F02AFE002001F027FE992001F024FE9A
:101B3000002001F021FEBB2001F01EFE002001F07C
:101B40001BFE992001F018FE002001F015FE662012
:101B500001F012FE002001F00FFE552001F00CFEF6
:101B6000002001F009FE552001F006FE002001F0E2
:101B700003FE452001F000FE002001F0FDFD4320A2
:101B800001F0FAFD002001F0F7FD442001F0F4FD22
:101B9000002001F0F1FDE72001F0FAFD322001F014
:101BA000EBFD002001F0E8FD552001F0E5FD0020EF
:101BB00001F0E2FD762001F0DFFD002001F0DCFD08
:101BC000662001F0D9FD002001F0D6FD672001F06C
:101BD000D3FD002001F0D0FD672001F0CDFD0020F5
:101BE00001F0CAFD872001F0C7FD002001F0C4FD0F
:101BF000992001F0C1FD002001F0BEFDBB2001F0E5
:101C0000BBFD002001F0B8FD992001F0B5FD0020DA
:101C100001F0B2FD772001F0AFFD002001F0ACFD36
:101C2000442001F0A9FD002001F0A6FD562001F09E
:101C3000A3FD002001F0A0FD232001F09DFD002068
:101C400001F09AFD332001F097FD002001F094FD92
:101C5000452001F091FD002001F08EFDE82001F00B
:101C600097FD002001F088FD002001F085FD9920FE
:101C700001F082FD002001F07FFD872001F07CFD56
:101C8000002001F079FD882001F076FD002001F0B0
:101C900073FD772001F070FD002001F06DFD6620DE
:101CA00001F06AFD002001F067FD882001F064FD6D
:101CB000002001F061FDAA2001F05EFD002001F08E
:101CC0005BFDBB2001F058FD002001F055FD99207F
:101CD00001F052FD002001F04FFD662001F04CFDA7
:101CE000002001F049FD552001F046FD002001F0E3
:101CF00043FD552001F040FD002001F03DFD442052
:101D000001F03AFD002001F037FD442001F034FDE0
:101D1000002001F031FD552001F02EFD002001F0E2
:101D20002BFDE92001F034FDAA2001F025FD002063
:101D300001F022FD002001F01FFD002001F01CFD3C
:101D4000002001F025FDAA2001F016FDCF2001F0B2
:101D50001FFD002001F010FD002001F00DFD00200E
:101D600001F00AFD002001F007FD002001F004FD54
:101D7000002001F001FD002001F0FEFC002001F038
:101D8000FBFC002001F0F8FC002001F0F5FC002035
:101D900001F0F2FC002001F0EFFC002001F0ECFC6F
:101DA000002001F0E9FC002001F0E6FC002001F039
:101DB000E3FC002001F0E0FCF02001F0E9FC002051
:101DC00001F0DAFC502001F0D7FC002001F0D4FC37
:101DD000002001F0D1FC002001F0CEFCF32001F046
:101DE000D7FC002001F0C8FCF92001F0D1FC06204E
:101DF00001F0C2FC102001F0BFFC292001F0BCFC66
:101E0000002001F0B9FC3A2001F0C2FC552001F09D
:101E1000B3FC112001F0BCFC6420FEF733FB292049
:101E200001F0B6FC352001F0B3FC002001F0A4FC69
:101E3000512001F0ADFCFF2001F09EFC532001F089
:101E4000A7FC2C2001F098FC552001F0A1FC822079
:101E500001F092FC2C2001F09BFC01F048B8FE48F8
:101E6000808845F2105188427ED155214FF4704050
:101E700001F0A4FCAA214FF2010001F09FFC5221C5
:101E80004FF2020001F09AFC08214FF2030001F02A
:101E900095FC01214FF2040001F090FC0D214FF45C
:101EA000304001F08BFC0D214BF2010001F086FC6B
:101EB0000D214BF2020001F081FC34214FF4364039
:101EC00001F07CFC34214BF2016001F077FC3421FD
:101ED0004BF2026001F072FC0D214FF4314001F031
:101EE0006DFC0D214BF2011001F068FC0D214BF24D
:101EF000021001F063FC34214FF4374001F05EFC26
:101F000034214BF2017001F059FC34214BF2027084
:101F100001F054FC00214FF4324001F04FFC00214D
:101F20004BF2012001F04AFC00214BF2022001F0AB
:101F300045FC24214FF4384001F040FC24214BF6AD
:101F4000010001F03BFC24214BF6020001F036FCBD
:101F500001214FF43F4001F031FC0F214FF4334099
:101F600001F02CFC0F2100E0FEE34BF2013001F008
:101F700025FC0F214BF2023001F020FC34214FF4FC
:101F8000394001F01BFC34214BF6011001F016FC26
:101F900034214BF6021001F011FC08214FF43540BA
:101FA00001F00CFC08214BF2015001F007FC082164
:101FB0004BF2025001F002FC03214FF4424001F0C9
:101FC000FDFB24214FF43A4001F0F8FB24214BF6AD
:101FD000012001F0F3FB24214BF6022001F0EEFB7F
:101FE00000214FF43C4001F0E9FB78214BF6014021
:101FF00001F0E4FB00214BF6024001F0DFFB002181
:102000004FF43D4001F0DAFB78214BF6015001F02E
:10201000D5FB00214BF6025001F0D0FB00214FF41C
:102020003E4001F0CBFB64214BF6016001F0C6FBA2
:1020300000214FF4514001F0C1FB33214DF201105A
:1020400001F0BCFB00214DF2021001F0B7FB34217E
:102050004DF2031001F0B2FB00214DF2041001F02B
:10206000ADFB3A214DF2051001F0A8FB00214DF225
:10207000061001F0A3FB4A214DF2071001F09EFB70
:1020800000214DF2081001F099FB5C214DF209107E
:1020900001F094FB00214DF20A1001F08FFB812129
:1020A0004DF20B1001F08AFB00214DF20C1001F0F3
:1020B00085FBA6214DF20D1001F080FB00214DF2B1
:1020C0000E1001F07BFBE5214DF20F1001F076FBC5
:1020D00001214DF2101001F071FB13214DF211108E
:1020E00001F06CFB01214DF2121001F067FB54214D
:1020F0004DF2131001F062FB01214DF2141001F0BA
:102100005DFB82214DF2151001F058FB01214DF2CB
:10211000161001F053FBCA214DF2171001F04EFBCF
:1021200002214DF2181001F049FB00214DF2191067
:1021300001F044FB02214DF21A1001F03FFB012196
:102140004DF21B1001F03AFB02214DF21C1001F080
:1021500035FB34214DF21D1001F030FB02214DF210
:102160001E1001F02BFB67214DF21F1001F026FB22
:1021700002214DF2201001F021FB84214DF22110AB
:1021800001F01CFB02214DF2221001F017FBA421EB
:102190004DF2231001F012FB02214DF2241001F048
:1021A0000DFBB7214DF2251001F008FB02214DF285
:1021B000261001F003FBCF214DF2271001F0FEFAAB
:1021C00002214DF2281001F0F9FADE214DF229101A
:1021D00001F0F4FA02214DF22A1001F0EFFAF22197
:1021E0004DF22B1001F0EAFA02214DF22C1001F011
:1021F000E5FAFE214DF22D1001F0E0FA03214DF237
:102200002E1001F0DBFA10214DF22F1001F0D6FA5A
:1022100003214DF2301001F0D1FA33214DF231108B
:1022200001F0CCFA03214DF2321001F0C7FA6D2112
:102230004DF2331001F0C2FA00214FF4524001F088
:10224000BDFA33214DF2012001F0B8FA00214DF220
:10225000022001F0B3FA01E0DC02012034214DF24A
:10226000032001F0ABFA00214DF2042001F0A6FAA0
:102270003A214DF2052001F0A1FA00214DF206208D
:1022800001F09CFA4A214DF2072001F097FA002153
:102290004DF2082001F092FA5C214DF2092001F084
:1022A0008DFA00214DF20A2001F088FA81214DF2C9
:1022B0000B2001F083FA00214DF20C2001F07EFA90
:1022C000A6214DF20D2001F079FA00214DF20E20E9
:1022D00001F074FAE5214DF20F2001F06FFA0121AF
:1022E0004DF2102001F06AFA13214DF2112001F095
:1022F00065FA01214DF2122001F060FA54214DF2ED
:10230000132001F05BFA01214DF2142001F056FA7E
:1023100082214DF2152001F051FA01214DF21620D3
:1023200001F04CFACA214DF2172001F047FA0221C0
:102330004DF2182001F042FA00214DF2192001F06F
:102340003DFA02214DF21A2001F038FA01214DF236
:102350001B2001F033FA02214DF21C2001F02EFA6D
:1023600034214DF21D2001F029FA02214DF21E20E8
:1023700001F024FA67214DF21F2001F01FFA02211B
:102380004DF2202001F01AFA84214DF2212001F0B3
:1023900015FA02214DF2222001F010FAA4214DF28B
:1023A000232001F00BFA02214DF2242001F006FA5D
:1023B000B7214DF2252001F001FA02214DF226202D
:1023C00001F0FCF9CF214DF2272001F0F7F90221AD
:1023D0004DF2282001F0F2F9DE214DF2292001F022
:1023E000EDF902214DF22A2001F0E8F9F2214DF237
:1023F0002B2001F0E3F902214DF22C2001F0DEF94F
:10240000FE214DF22D2001F0D9F903214DF22E20AD
:1024100001F0D4F910214DF22F2001F0CFF9032162
:102420004DF2302001F0CAF933214DF2312001F094
:10243000C5F903214DF2322001F0C0F96D214DF2B2
:10244000332001F0BBF900214FF4534001F0B6F9FD
:1024500033214DF2013001F0B1F900214DF202308B
:1024600001F0ACF934214DF2033001F0A7F900215D
:102470004DF2043001F0A2F93A214DF2053001F09D
:102480009DF900214DF2063001F098F94A214DF2F4
:10249000073001F093F900214DF2083001F08EF978
:1024A0005C214DF2093001F089F900214DF20A302A
:1024B00001F084F981214DF20B3001F07FF9002108
:1024C0004DF20C3001F07AF9A6214DF20D3001F0F9
:1024D00075F900214DF20E3001F070F9E5214DF251
:1024E0000F3001F06BF901214DF2103001F066F967
:1024F00013214DF2113001F061F901214DF212303A
:1025000001F05CF954214DF2133001F057F901212B
:102510004DF2143001F052F982214DF2153001F0E4
:102520004DF901214DF2163001F048F9CA214DF262
:10253000173001F043F902214DF2183001F03EF955
:1025400000214DF2193001F039F902214DF21A3013
:1025500001F034F901214DF21B3001F02FF9022175
:102560004DF21C3001F02AF934214DF21D3001F0FA
:1025700025F902214DF21E3001F020F967214DF2BC
:102580001F3001F01BF902214DF2203001F016F945
:1025900084214DF2213001F011F902214DF2223057
:1025A00001F00CF9A4214DF2233001F007F90221CA
:1025B0004DF2243001F002F9B7214DF2253001F03F
:1025C000FDF802214DF2263001F0F8F8CF214DF24E
:1025D000273001F0F3F802214DF2283001F0EEF837
:1025E000DE214DF2293001F0E9F802214DF22A30C6
:1025F00001F0E4F8F2214DF22B3001F0DFF8022176
:102600004DF22C3001F0DAF8FE214DF22D3001F0C0
:10261000D5F803214DF22E3001F0D0F810214DF203
:102620002F3001F0CBF803214DF2303001F0C6F825
:1026300033214DF2313001F0C1F803214DF2323037
:1026400001F0BCF86D214DF2333001F0B7F80021F4
:102650004FF4544001F0B2F833214DF2014001F043
:10266000ADF800214DF2024001F0A8F834214DF2FE
:10267000034001F0A3F800214DF2044001F09EF860
:102680003A214DF2054001F099F800214DF2064043
:1026900001F094F84A214DF2074001F08FF8002133
:1026A0004DF2084001F08AF85C214DF2094001F03A
:1026B00085F800214DF20A4001F080F881214DF2A9
:1026C0000B4001F07BF800214DF20C4001F076F850
:1026D000A6214DF20D4001F071F800214DF20E409F
:1026E00001F06CF8E5214DF20F4001F067F801218F
:1026F0004DF2104001F062F813214DF2114001F04B
:102700005DF801214DF2124001F058F854214DF2CC
:10271000134001F053F801214DF2144001F04EF83E
:1027200082214DF2154001F049F801214DF2164089
:1027300001F044F8CA214DF2174001F03FF80221A0
:102740004DF2184001F03AF800214DF2194001F025
:1027500035F802214DF21A4001F030F801214DF216
:102760001B4001F02BF800E003E302214DF21C4076
:1027700001F024F834214DF21D4001F01FF8022130
:102780004DF21E4001F01AF867214DF21F4001F092
:1027900015F802214DF2204001F010F884214DF28D
:1027A000214001F00BF802214DF2224001F006F821
:1027B000A4214DF2234001F001F802214DF2244002
:1027C00000F0FCFFB7214DF2254000F0F7FF022199
:1027D0004DF2264000F0F2FFCF214DF2274000F0ED
:1027E000EDFF02214DF2284000F0E8FFDE214DF21E
:1027F000294000F0E3FF02214DF22A4000F0DEFF05
:10280000F2214DF22B4000F0D9FF02214DF22C4075
:1028100000F0D4FFFE214DF22D4000F0CFFF032148
:102820004DF22E4000F0CAFF10214DF22F4000F073
:10283000C5FF03214DF2304000F0C0FF33214DF2BF
:10284000314000F0BBFF03214DF2324000F0B6FFF3
:102850006D214DF2334000F0B1FF00214FF455409F
:1028600000F0ACFF33214DF2015000F0A7FF002132
:102870004DF2025000F0A2FF34214DF2035000F05F
:102880009DFF00214DF2045000F098FF3A214DF2D7
:10289000055000F093FF00214DF2065000F08EFF2E
:1028A0004A214DF2075000F089FF00214DF20850F7
:1028B00000F084FF5C214DF2095000F07FFF002101
:1028C0004DF20A5000F07AFF81214DF20B5000F0DA
:1028D00075FF00214DF20C5000F070FFA6214DF263
:1028E0000D5000F06BFF00214DF20E5000F066FF1E
:1028F000E5214DF20F5000F061FF01214DF2105023
:1029000000F05CFF13214DF2115000F057FF012140
:102910004DF2125000F052FF54214DF2135000F0CE
:102920004DFF01214DF2145000F048FF82214DF27D
:10293000155000F043FF01214DF2165000F03EFF0C
:10294000CA214DF2175000F039FF02214DF2185004
:1029500000F034FF00214DF2195000F02FFF02214A
:102960004DF21A5000F02AFF01214DF21B5000F0E9
:1029700025FF02214DF21C5000F020FF34214DF2C2
:102980001D5000F01BFF02214DF21E5000F016FFFB
:1029900067214DF21F5000F011FF02214DF220502F
:1029A00000F00CFF84214DF2215000F007FF0221BE
:1029B0004DF2225000F002FFA4214DF2235000F00E
:1029C000FDFE02214DF2245000F0F8FEB7214DF239
:1029D000255000F0F3FE02214DF2265000F0EEFEED
:1029E000CF214DF2275000F0E9FE02214DF2285090
:1029F00000F0E4FEDE214DF2295000F0DFFE02215E
:102A00004DF22A5000F0DAFEF2214DF22B5000F088
:102A1000D5FE02214DF22C5000F0D0FEFE214DF2E9
:102A20002D5000F0CBFE03214DF22E5000F0C6FEDB
:102A300010214DF22F5000F0C1FE03214DF2305015
:102A400000F0BCFE33214DF2315000F0B7FE0321FF
:102A50004DF2325000F0B2FE6D214DF2335000F0D5
:102A6000ADFE00214FF4564000F0A8FE33214DF298
:102A7000016000F0A3FE00214DF2026000F09EFE16
:102A800034214DF2036000F099FE00214DF2046004
:102A900000F094FE3A214DF2056000F08FFE002117
:102AA0004DF2066000F08AFE4A214DF2076000F008
:102AB00085FE00214DF2086000F080FE5C214DF2A1
:102AC000096000F07BFE00214DF20A6000F076FE06
:102AD00081214DF20B6000F071FE00214DF20C607F
:102AE00000F06CFEA6214DF20D6000F067FE0021A3
:102AF0004DF20E6000F062FEE5214DF20F6000F035
:102B00005DFE01214DF2106000F058FE13214DF2E0
:102B1000116000F053FE01214DF2126000F04EFEF4
:102B200054214DF2136000F049FE01214DF2146072
:102B300000F044FE82214DF2156000F03FFE0121BD
:102B40004DF2166000F03AFECA214DF2176000F017
:102B500035FE02214DF2186000F030FE00214DF2EA
:102B6000196000F02BFE02214DF21A6000F026FEE3
:102B700001214DF21B6000F021FE02214DF21C608C
:102B800000F01CFE34214DF21D6000F017FE022102
:102B90004DF21E6000F012FE67214DF21F6000F042
:102BA0000DFE02214DF2206000F008FE84214DF25E
:102BB000216000F003FE02214DF2226000F0FEFDD4
:102BC000A4214DF2236000F0F9FD02214DF22460B2
:102BD00000F0F4FDB7214DF2256000F0EFFD022179
:102BE0004DF2266000F0EAFDCF214DF2276000F0A3
:102BF000E5FD02214DF2286000F0E0FDDE214DF2FE
:102C0000296000F0DBFD02214DF22A6000F0D6FDC4
:102C1000F2214DF22B6000F0D1FD02214DF22C602B
:102C200000F0CCFDFE214DF22D6000F0C7FD032128
:102C30004DF22E6000F0C2FD10214DF22F6000F029
:102C4000BDFD03214DF2306000F0B8FD33214DF29F
:102C5000316000F0B3FD03214DF2326000F0AEFDB3
:102C60006D214DF2336000F0A9FD55214FF4704005
:102C700000F0A4FDAA214FF2010000F09FFD5221B7
:102C80004FF2020000F09AFD08214FF2030000F01D
:102C900095FD00214FF2040000F090FDCC214FF48F
:102CA000314000F08BFD00214BF2011000F086FD59
:102CB00005214FF4364000F081FD70214FF437407C
:102CC00000F07CFD70214BF2017000F077FD0121D6
:102CD0004FF4384000F072FD03214BF6010000F084
:102CE0006DFD03214BF6020000F068FD03214BF659
:102CF000030000F063FD02214FF43C4000F05EFD54
:102D000000214BF6014000F059FD00214BF6024036
:102D100000F054FDD0214FF4494000F04FFD022156
:102D20004CF6011000F04AFD50214CF6021000F064
:102D300045FD50214CF6031000F040FD50214CF6AB
:102D4000041000F03BFD00214FF4545000F036FD1C
:102D500055214FF4685000F031FD4FF4885000F0D9
:102D600017FD7820FDF793FB4FF4245000F010FD81
:102D7000BDE08048808841F663118842F8D1E220A6
:102D800000F006FD1D2000F0F7FC022000F0F4FC2E
:102D9000042000F0F1FC6420FDF779FBE02000F056
:102DA000F7FC012000F0E8FC0A20FDF76BFBE020B7
:102DB00000F0EEFC032000F0DFFC0C20FDF762FBCE
:102DC000012000F0E5FC0A20FDF75CFBE62000F0A6
:102DD000DFFC2F2000F0D0FCFF2000F0CDFCFF2016
:102DE00000F0CAFCB02000F0D3FC202000F0C4FCAE
:102DF000002000F0C1FC032000F0BEFC40F21F30B8
:102E000000F0BAFC012000F0B7FC40F2DF1000F047
:102E1000B3FC002000F0B0FCB42000F0B9FC0420AA
:102E200000F0AAFC40F21F4000F0A6FC002000F0D9
:102E3000A3FC2E2000F0A0FC002000F09DFC002050
:102E400000F09AFC002000F097FC002000F094FCB9
:102E5000B62000F09DFC022000F08EFC4FF40370C1
:102E600000F08AFC002000F087FC172000F084FCB2
:102E7000152000F081FC002000F07EFC002000F016
:102E80007BFCF02000F084FC032000F075FC29207E
:102E900000F07EFCD02000F07BFC002000F06CFCF9
:102EA000BE2000F075FC052000F066FCFE2000F05E
:102EB00063FC012000F060FC002000F05DFC0020BD
:102EC00000F05AFC002000F057FCB82000F060FC35
:102ED000032000F051FC012000F04EFCBA2000F06D
:102EE00057FC012000F048FC642000F0C5F82148A0
:102EF000808849F24131884211D01E48808845F2CD
:102F0000103188420BD01B48808845F2105188420E
:102F100005D01848808841F6631188421CD11648B4
:102F2000006820F00F004FF02041C1F8040108466E
:102F3000D0F8040120F47060C1F804010846D0F80C
:102F4000040140F00400C1F804010846D0F804016F
:102F500040F48060C1F804010020FDF7D5FA012299
:102F600020210648FDF798FA4FF6FF70FDF7A8FA02
:102F70001CBD0000DC020120040100A0000402408E
:102F800010B50246012000E050430B1EA1F10104E0
:102F9000E1B2F9D110BD000008B5034800880090E7
:102FA000BDF8000008BD0000000008602DE9F041F8
:102FB00005460E4600240027A0462D480088A8425A
:102FC00003DD2B484088B04202DC0020BDE8F081E0
:102FD0002848006820B13146284601F0A7F8F5E7F7
:102FE0003146284600F0B2F92148808849F2413143
:102FF00088420BD01E48808845F21031884205D0A7
:103000001B48808841F66311884203D12E2000F0CE
:10301000BFFB09E01648808845F21051884203D171
:103020004FF4385000F0B4FBFFF7B6FF04461048E9
:10303000808841F66311884201D12046C6E702200C
:1030400001F041FCFFF7A8FF0446022001F03BFC21
:10305000FFF7A2FF8046E7B24FF6FF7000EA0727AE
:10306000E012C002B91240EA411040EAE820ADE7A0
:10307000DC020120EC02012070B52DED048B04462A
:10308000BE2000F085FB052000F076FB204602F014
:1030900002FD41EC190B9FED0E0B53EC102B02F0CF
:1030A0000DFD41EC180B02F0C9FC85B2284600F07A
:1030B00063FB012000F060FBFF2000F05DFB0020BF
:1030C00000F05AFB002000F057FBBDEC048B70BDF4
:1030D0006666666666660440F0B50546002400270D
:1030E00099488079012805D19748808841F6631175
:1030F000884208D194488079F0B99348808841F695
:103100006311884218D1082D15D2DFE805F00406B6
:10311000080A0C0E101206250DE007250BE0042509
:1031200009E0052507E0012505E0002503E003256A
:1031300001E0022500BF00BF8348808849F2413189
:10314000884211D08048808845F2103188420BD0E7
:103150007D48808845F21051884205D07A488088A1
:1031600041F6631188427DD1082D1CD2DFE805F0BD
:103170000406090C0F12151800BF14E044F0800477
:1031800011E044F040040EE044F0C0040BE044F0D1
:10319000200408E044F0600405E044F0A00402E0EC
:1031A00044F0E00400BF00BF6748808845F210513A
:1031B000884202D14FF4585700E036276248808891
:1031C00045F2103188420DD05F48808845F2105199
:1031D000884207D05C48808841F66311884201D05C
:1031E00044F008042146384600F0E8FA5648808842
:1031F00041F6631188421DD004F0200068B15248A6
:10320000008851494988884214DA4F480688408826
:103210004D490880084646800CE04B4800884A49E2
:103220004988884206DD4848068840884649088023
:10323000084646804448808845F21051884254D15F
:103240004149488900F0A4FA002000F095FA3E496F
:103250004989491C88B200F09BFA002000F08CFAE2
:10326000394900E06FE04989891C88B200F090FA82
:1032700035490988491EC1F30F2000F07DFA324913
:103280004989C91C88B200F083FA2F490978491E80
:10329000C8B200F071FA2C49888900F079FA002050
:1032A00000F06AFA28498989491C88B200F070FA4E
:1032B000002000F061FA24498989891C88B200F055
:1032C00067FA21494988491EC1F30F2000F054FADA
:1032D0001D498989C91C88B200F05AFA1A498978AF
:1032E000491EC8B200F048FA2DE01749488900F09D
:1032F0004FFA002000F040FA002000F03DFA124999
:103300000988491EC1F30F2000F036FA0E490978EA
:10331000491EC8B200F030FA0B49888900F038FA2B
:10332000002000F029FA002000F026FA064949881A
:10333000491EC1F30F2000F01FFA03498978491E86
:10334000C8B200F019FAF0BDDC02012010B5024647
:103350000C464B48808849F24131884205D04848A4
:10336000808845F21031884214D14549488900F0DF
:103370000FFA101200F000FAD0B200F0FDF9404947
:10338000888900F005FA201200F0F6F9E0B200F0AA
:10339000F3F973E03A48808841F66311884247D1D7
:1033A00037488079A8B936480088401E801A82B212
:1033B0003349488900F0ECF9002000F0DDF90020E5
:1033C00000F0DAF9101200F0D7F9D0B200F0D4F919
:1033D00016E02B49488900F0DBF9101200F0CCF917
:1033E000D0B200F0C9F926490988491EC1F30F205F
:1033F00000F0C2F922490978491EC8B200F0BCF9B0
:103400001F49888900F0C4F9201200F0B5F9E0B234
:1034100000F0B2F91A494988491EC1F30F2000F0A3
:10342000ABF917498978491EC8B200F0A5F925E023
:103430001348808845F2105188421FD110494889AD
:1034400000F0A6F9101200F097F90D494989491CBE
:1034500088B200F09DF9D0B200F08EF90849888951
:1034600000F096F9201200F087F905498989491C76
:1034700088B200F08DF9E0B200F07EF910BD0000D6
:10348000DC0201202DE9F84F80460F4616461C4607
:10349000BB462046E31704EB5373DB1021464FEA8B
:1034A000E47C04EB5C7C4FEAEC0CA4EBCC0CBCF1B0
:1034B000000F02D04FF0010C01E04FF0000C63440C
:1034C000224604EBD27C4FEA6C0C03FB0CF3DBB21C
:1034D0000093A6F12000C6B200255EE00C2C07D1B7
:1034E00006EB46002F4901EB800010F805901BE029
:1034F000102C05D12C4800EB061010F8059013E0B5
:10350000182C07D106EBC600284901EB800010F803
:10351000059009E0202C05D1254800EBC61010F8D5
:10352000059001E0BDE8F88F4FF0000A2FE009F0A8
:10353000800030B11F48394602684046FDF786F9E1
:1035400007E00A9828B91C48394602684046FDF74A
:103550007DF94FEA49604FEA1069781C87B2174835
:103560004088B84200DCDDE7A7EB0B00A0420AD19F
:103570005F4608F101001FFA80F8104800884045B6
:1035800000DCCFE706E00AF1010000F0FF0ABAF123
:10359000080FCCDB00BF681CC5B2009885429DDBDC
:1035A00000BFBFE7B85C00902C6100901C670090E2
:1035B000787400901000012014000120DC0201202A
:1035C0002DE9FF4F81B0074691461E460E9D4FF0F4
:1035D000000A002439E0301B401EC1B20A20FFF768
:1035E000CFFCB9FBF0F00A21B0FBF1F201FB1208AD
:1035F000BAF1000F16D1701EA04213DDB8F1000F12
:103600000ED10020AB4605EBDB71491001FB0471C4
:10361000009088B22B4620220299FFF733FF12E078
:103620004FF0010A0020AB4605EBDB71491001FBAE
:103630000471009088B208F13001CAB22B46029999
:10364000FFF720FF00BF601CC4B2B442C3DB05B06B
:10365000BDE8F08F2DE9F84F04460D469046994697
:10366000DDE90A6704F0FF0A08EB04001FFA80F89E
:1036700009EB05001FFA80F916E0444502DB5446C9
:10368000A81985B24D4500DB14E0002000903A787F
:10369000334629462046FFF7F5FE304606EBD0714B
:1036A00004EB61018CB27F1C38787E2802DC38780C
:1036B0002028E2DA00BFBDE8F88F2DE9FF4F83B084
:1036C000064692461F46DDE910480020029000257C
:1036D0004DE0781B401EC1B20A20FFF751FCBAFB37
:1036E000F0F00A21B0FBF1F201FB1209029850BB85
:1036F000781EA84227DDB9F1000F22D108F0800022
:1037000078B108F00100A34604EBDB71491001FB1E
:103710000561009088B2234630220499FFF7B2FE7B
:103720000EE008F00100A34604EBDB71491001FB39
:103730000561009088B2234620220499FFF7A2FE7B
:1037400013E00120029008F00100A34604EBDB71B6
:10375000491001FB0561009088B209F13001CAB23D
:1037600023460499FFF78EFE00BF681CC5B2BD4218
:10377000AFDB07B0BDE8F08F01B5BDF800000090E9
:10378000BDF800000149088008BD00000000086085
:1037900001B5BDF800000090BDF8000001490880A7
:1037A00008BD0000FEFF076002480089024908804A
:1037B00070470000DC020120FEFF0760024A108013
:1037C000921C118070470000FEFF07601CB517486F
:1037D000006840F00200154908600846006840F49F
:1037E00080700860012000210B460246CDE90010E0
:1037F00003210F48FCF73CFE012000210B46024646
:10380000CDE90010C1020B48FCF732FE0122022173
:103810000748FCF741FE012211460548FCF73CFE33
:103820000122D1020348FCF737FE1CBD30380240AC
:10383000000402400020024018B5044606480094E7
:10384000008B401E83B20448C08A401E82B2002111
:10385000084600F08DF818BDEC020120F0B50346D3
:103860000C461546002100200022214E366826F025
:1038700080561F4F3E6001E04E1CB1B21C4E3668B0
:1038800006F000561EB141F6FF76B142F4DB41F678
:10389000FF76B14201D1012029E042EA831242EAD7
:1038A0000472134E88363260361D366826F4403670
:1038B0000F4F8C373E603E46366846EA05463E600E
:1038C0000B4E366846F08056094F3E6001E04E1CB4
:1038D000B1B2074E366806F000561EB941F6FF76C3
:1038E000B142F4DB41F6FF76B14200D10220F0BDD7
:1038F000003802400949487530B98988074AD182A1
:1039000011460988118308E0012806D10349098876
:10391000024AD1821146898811837047EC02012046
:1039200070B5114B5B7D6BB10F4BDB690E4D2D6894
:1039300005FB01056B430C4D2D7D0C4E56F82550B3
:10394000EA520FE0084B1D685B681B1A5B1E05FB03
:103950000313054DED696B43034D2D7D034E56F862
:103960002550EA5270BD0000EC0201201800012031
:103970002DE9F04F04460D4616464FF0000CDFF8D7
:10398000289199F81590B9F1000F04D020462946E6
:1039900032461F4611E02846DFF80C91D9F8049012
:1039A000A9EB0609A9F101011A46DFF8FC90D9F844
:1039B0000490A9EB0409A9F10107DFF8EC90B9F82C
:1039C0000090A2EB000A0AF1010AA9EB0A091FFA0A
:1039D00089F8DFF8D49099F81490DFF8D0A05AF85D
:1039E0002990DFF8C4A0DAF81CA0DFF8BCB0DBF83F
:1039F00000B00BFB010B0AFB0B9EDFF8B490D9F86B
:103A0000009049F40009DFF8A8A0CAF80090DFF898
:103A1000A490D9F8009029F00109DFF898A0CAF81D
:103A200000904FF44039CAF800904FF00209CAF8EC
:103A30003490D146C9F84080C9F83CE0A7EB0109B1
:103A400009F10109A2EB000A0AF1010A49EA0A494F
:103A5000DFF860A0CAF84490DDF82490CAF83890E6
:103A6000D146D9F8009049F00109CAF8009005E064
:103A70000CF1010CBCF5001F00D308E0DFF8349016
:103A8000D9F8049009F00209B9F1000FF0D000BF95
:103A9000DFF82090D9F8089049F00209DFF814A067
:103AA000CAF80890BDE8F08FEC0201201800012050
:103AB0003038024000B002407FB50024002500F0FD
:103AC000E1FA054605B97FBDE148006840F0806035
:103AD000DF490860DE481438006840F00200DC4925
:103AE000143908600846006840F4E060086001206E
:103AF00000900023024620210190D648FCF7B8FC34
:103B00000120032100230222CDE900104FF4E041FF
:103B1000D148FCF7ADFC0120032100230222CDE9AE
:103B2000001048F67C61CD48FCF7A2FC012003217F
:103B300000230222CDE90010FF21C948FCF798FCC0
:103B40000E220C21C448FCF798FC0E220D21C2481D
:103B5000FCF793FC0E221146BF48FCF78EFC0E22A8
:103B60000221BE48FCF789FC0E220321BB48FCF76A
:103B700084FC0E220421B948FCF77FFC0E220521AB
:103B8000B648FCF77AFC0E220621B448FCF775FC17
:103B90000E220921B148FCF770FC0E220A21AF4821
:103BA000FCF76BFC0E220B21AC48FCF766FC0E22E6
:103BB0000F21AA48FCF761FC0E220021A848FCF75F
:103BC0005CFC0E220121A648FCF757FC0E220221C4
:103BD000A348FCF752FC0E220321A148FCF74DFC40
:103BE0000E2204219E48FCF748FC0E2205219C4829
:103BF000FCF743FC0E2206219948FCF73EFC0E22FE
:103C000007219748FCF739FC44F24230854218D12D
:103C10004FF4F070934908604FF4887048600120B9
:103C200008814881282088810820C88105200882D1
:103C300008204882022204214FF49070FFF70EFE04
:103C40006BE047F28400854218D14FF448708549F3
:103C500008604FF4F07048600120088148812E20F0
:103C600088811720C881D22008821620488201222C
:103C700003214FF4C670FFF7F1FD4EE047F2160046
:103C8000854219D14FF48060764908604FF4167070
:103C9000486014200881032048818C2088811420EA
:103CA000C881A02008820C204882002203214FF402
:103CB000B470FFF7D3FD30E047F21800854207D11A
:103CC0004FF4A060674908604FF44870486024E0F2
:103CD00048F21600854206D14011624908604FF44F
:103CE0001670486019E041F21800854215D14FF472
:103CF000A0605C4908604FF4487048608C2088815F
:103D00000A2008820881C881488203204881002255
:103D100003214FF4B470FFF7A1FD002441F2180015
:103D2000854201D14FF0805400BF00BF00BF4E4814
:103D300004604C484089441E4A480089401E44EAB9
:103D40000044494810380460464840894549C989BB
:103D50000844441E43480089424989890844401E5A
:103D600044EA004440480C3804603E4840893D49DC
:103D7000C98908443B4949680844441E39480089B8
:103D8000384989890844374909880844401E44EA6B
:103D90000044354808380460324840893149C989AF
:103DA00008443049496808442E49498A0844441E59
:103DB0002C4800892B49898908442A4909880844E4
:103DC0002849098A0844401E44EA00442648001F46
:103DD00004600020244914310860012000F0D4F967
:103DE00022482349086002201E49C861002007219B
:103DF0000622CDE90002CDE902101D48FF23022270
:103E00000168002000F038F802211648808880B24E
:103E1000CDE900011348008883B200221146104604
:103E200000F09EF80F480088124908800D488088ED
:103E30004880002000F0A2F9012220210548FCF76B
:103E40002BFB4FF0FF30FFF7F7FC00BF3BE6000015
:103E50004438024000040240002002400024024096
:103E600000280240EC02012018680140000000C058
:103E700018000120DC0201202DE9F04106ACF0CC55
:103E8000E0B9DFF878C0CCF80010DFF870C0ACF112
:103E9000180CCCF800200CF1040CCCF8003047EAE8
:103EA000046CDFF85880A8F11008C8F800C046EA92
:103EB000052C08F10408C8F800C01DE0DFF83CC07C
:103EC0000CF1800CCCF80010DFF830C00CF1680C5D
:103ED000CCF800200CF1040CCCF8003047EA046C5C
:103EE000DFF8188008F17008C8F800C046EA052C11
:103EF00008F10408C8F800C0BDE8F081AC680140D2
:103F0000012910D130B9154A126842F00102134B51
:103F10001A6019E0114A8032126842F001020F4B18
:103F200080331A6010E079B930B90C4A126822F077
:103F300001020A4B1A6007E0084A8032126822F038
:103F40000102064B80331A60044A603A126842F05C
:103F50000102024B603B1A60704700008468014018
:103F60002DE9F04782460F4690461E46DDE908944B
:103F7000BAF1000F3ED1B81940490968C1F30B41AD
:103F8000084405043D480068C0F30B403844401C19
:103F900028433A497C31086008EB09003749096831
:103FA000C1F30A010844050434480068C0F30A005C
:103FB0004044401C28433149803108600CB9042535
:103FC0000AE0012C01D1032506E0052C01D0062CC6
:103FD00001D1012500E0022506FB05F0C01C06FB0F
:103FE00005F140EA01402549A4310860081DC0F8E8
:103FF00000903CE0B81921490968C1F30B4108441D
:1040000005041E480068C0F30B403844401C284398
:104010001A49FC31086008EB090018490968C1F326
:104020000A010844050415480068C0F30A0040442A
:10403000401C2843124908600CB904250AE0012CF1
:1040400001D1032506E0052C01D0062C01D1012564
:1040500000E0022506FB05F0C01C06FB05F140EA66
:104060000140074924310860081DC0F80090012173
:104070005046FFF745FFBDE8F08700000C6801409F
:104080000C6901401CB500242548006840F4C0605C
:1040900023490860012000210B460A46CDE90010A3
:1040A00040212048FCF7E4F9012000210B460A4694
:1040B000CDE9001044211C48FCF7DAF93220FCF766
:1040C000E1F940211748FCF7ECF9044604211648B1
:1040D000FCF7E7F944EA4000C4B240211248FCF77B
:1040E000E0F944EA8000C4B2062C16D2DFE804F0FE
:1040F0000306090C0F1244F242301CBD47F2840043
:10410000FBE747F21600F8E747F21800F5E748F238
:104110001600F2E741F21800EFE70020EDE700009B
:1041200030380240002402400028024010B5024608
:104130001048407D68B10F48C0690E4B1B6803FBF7
:10414000012358430B4B1B7D0B4C54F82330185A5A
:1041500010BD084803684068801A401E03FB001029
:10416000044BDB695843034B1B7D034C54F823304D
:10417000185AEDE7EC0201201800012001490875EA
:1041800070470000EC020120012806D107490968A8
:1041900041F00101054A116006E028B903490968A8
:1041A00021F00101014A11607047000018680140C8
:1041B0000146002002E04908421CD0B20129FAD190
:1041C000704700000748006820F480300549086007
:1041D00004487030006820F0010002497031086026
:1041E0007047000024ED00E0052005490860044800
:1041F0007038006840F480300149703908607047B9
:1042000094ED00E00FB5012000220323CDE9012049
:1042100000930390134602460104400700F044F85F
:10422000012000220323CDE90120009303901346CF
:10423000022281041B4800F037F8012000220323EA
:10424000CDE901200093039013460322810300204F
:1042500000F02AF800200323CDE900300290034645
:104260000422110603904FF0C04000F01DF8012019
:1042700000220323CDE90120009303901346052279
:1042800081064FF0404000F00FF800200323CDE9F5
:10429000003002900123062219070390C80000F0A5
:1042A00003F80FBD000001202DE9F04F05460C4634
:1042B00016461F46DDE90A9ADDF8248000239B4656
:1042C00004F01F0000B914B90120BDE8F08F2046AA
:1042D000FFF76EFF401E00F0FF0BFFF773FF0E4865
:1042E0000660001D056043EA077343EA086300BFE8
:1042F00043EA894343EA4A430C9843EA004300BF38
:1043000043EA4B0343F00103034808300360FFF71F
:104310006BFF0020D9E7000098ED00E010B5002207
:1043200001210A48FCF7B8F809A0FBF77BFE4FF41F
:104330007A70FCF7A7F80CA0FBF774FE4FF47A70C4
:10434000FCF7A0F8FCF7B2F810BD00000004024032
:104350004D656D20416363657373204572726F72A2
:1043600021210D0A00000000536F6674205265730E
:104370006574696E672E2E2E0D0A00007CB5002430
:1043800000250026E448006840F00100E24908608A
:10439000E1480838006840F4FE70DF4908390860D9
:1043A0000120032100230222CDE900100D21DB486A
:1043B000FCF75EF80120032100230222CDE9001062
:1043C0004CF20371D648FCF753F801200321002377
:1043D0000222CDE900104FF68371D248FCF748F86D
:1043E0000120032100230222CDE900104FF63F01F6
:1043F000CD48FCF73DF80120032100230222CDE93E
:10440000001048F23711C948FCF732F801200321A7
:1044100000230222CDE900104FF47F41C448FCF78D
:1044200027F80120032100230222CDE9001040F2E9
:10443000FF61C048FCF71CF80C220021B748FCF7CC
:104440001CF80C220221B548FCF717F80C220321B6
:10445000B248FCF712F80C220021B148FCF70DF825
:104460000C220121AE48FCF708F80C220821AC48C8
:10447000FCF703F80C220921A948FBF7FEFF0C22E8
:104480000A21A748FBF7F9FF0C220E21A448FBF7ED
:10449000F4FF0C220F21A248FBF7EFFF0C220021B2
:1044A000A048FBF7EAFF0C2201219E48FBF7E5FF3D
:1044B0000C2207219B48FBF7E0FF0C2208219948BA
:1044C000FBF7DBFF0C2209219648FBF7D6FF0C22F5
:1044D0000A219448FBF7D1FF0C220B219148FBF7EE
:1044E000CCFF0C2211468F48FBF7C7FF0C220D2191
:1044F0008C48FBF7C2FF0C220E218A48FBF7BDFF58
:104500000C220F218748FBF7B8FF0C2200218648B8
:10451000FBF7B3FF0C2201218348FBF7AEFF0C220F
:1045200002218148FBF7A9FF0C2203217E48FBF7FB
:10453000A4FF0C2204217C48FBF79FFF0C220521DD
:104540007948FBF79AFF0C220B217748FBF795FF80
:104550000C2211467448FBF790FF0C220D21724883
:10456000FBF78BFF0C220E216F48FBF786FF0C2216
:104570000F216D48FBF781FF0C2200216B48FBF7F0
:104580007CFF0C2201216948FBF777FF0C220221F6
:104590006648FBF772FF0C2204216448FBF76DFFAD
:1045A0000C2205216148FBF768FF0C2208215F48B7
:1045B000FBF763FF0C220F215C48FBF75EFF0C2228
:1045C00008215B48FBF759FF0C2209215848FBF7EB
:1045D00054FF0C220A215648FBF74FFF0C220B21F7
:1045E0005348FBF74AFF0C2211465148FBF745FFA1
:1045F0000C220D214E48FBF740FF0C220E214C48A7
:10460000FBF73BFF0C220F214948FBF736FF0C223A
:1046100000214848FBF731FF0C2201214548FBF7F8
:104620002CFF0C2202214348FBF727FF0C22032119
:104630004048FBF722FF0C2204213E48FBF71DFFF8
:104640000C2205213B48FBF718FF0C2206213948B4
:10465000FBF713FF0C2207213648FBF70EFF0C2255
:1046600009213448FBF709FF0C220A213148FBF7E6
:1046700004FF44F0010444F0080444F0200444F032
:10468000400444F4807400BF44F4006444F4805453
:1046900000BF2948046045F0010545F0700545F468
:1046A000806545F4C04545F4803545F4801545F0F6
:1046B0008075C005C0F84851006840F000404FF0D8
:1046C0002041086000231A460121184600F036F800
:1046D0004FF4FA70FBF7DBFE00231A46022118465E
:1046E00000F02CF8002308220321184600F026F8D9
:1046F00046F0030600BF46F0200600BF46F40076F1
:10470000334600220421104600F018F84FF4CE6022
:104710000949143108607CBD383802400008024065
:10472000000C024000100240001402400018024039
:10473000001C024000200240400100A0F0B50446E9
:104740000D46002600212943C4F104070120B8408A
:10475000014341EA421141EA43210948016005E071
:10476000761CB6F5001F01D30120F0BD04480830C7
:10477000006800F020000028F2D100BFF5E700003B
:10478000500100A010B50C48006800F0010058B1BD
:104790000A490869804700200749143108604FF42E
:1047A0007A7005491C3108600348006820F0010058
:1047B0000149086010BD00001008004004010120FC
:1047C00070B505460C461048006840F004000E49DC
:1047D00008600E480560001F04600C48203800681F
:1047E00040F0010009492039086008482C38006869
:1047F00040F0010005492C39086002231E220321E4
:104800000846FBF758FE70BD403802402C080040B7
:10481000014600BF4A1E92B2111EFBD1704770B50F
:10482000034603F47F40000203F47F0100EB1120F4
:10483000D9B2461817240BE026FA04F000F001055F
:1048400015B100F027F801E000F012F8601E44B244
:10485000002CF1DA70BD000000B54FF40060034990
:10486000886140F67460FFF7D3FF00BD002002406E
:1048700000B54FF40060064988611120FFF7C8FFBA
:104880004FF00060024988613220FFF7C1FF00BD90
:104890000020024000B54FF40060064988612A20DC
:1048A000FFF7B6FF4FF00060024988612320FFF751
:1048B000AFFF00BD0020024030380A2801D201209D
:1048C00070470020704700BF011EA0F10102D0B266
:1048D000FAD170470146086870470000024A10800C
:1048E000024A1180704700000A0001200C000120DC
:1048F00030B595B0054613AB12AA09A9284600F0B9
:104900003FFA044614B1204615B030BD0020149083
:1049100026E0224909689DF8502001EBC20113AB43
:1049200011AA486801A900F02BFA04460CB12046F0
:10493000EAE709A901A800F0DDFC60B99DF8440090
:104940009DF84810884201DD0220DDE79DF8500007
:10495000124988750AE09DF85000401CC0B21490BE
:104960000E48007D9DF850108842D2DC00BF0B48F5
:10497000007D9DF85010884201D10420C4E714A99D
:10498000284600F0DDFA04460CB12046BCE79DF84D
:104990005000024948750020B6E7000004010120DC
:1049A0002DE9F0419AB09C48847D007DA04202DC54
:1049B0001AB0BDE8F0819849096801EBC40106AB63
:1049C00007AA486808A900F0DBF908A993A0FBF73B
:1049D00029FB002644E09048008B0121B1400840AB
:1049E000D8B122218FA0FBF71DFB304600F02EFB33
:1049F00089492431471839468BA0FBF713FB222144
:104A000088A0FBF70FFB304600F020FB82492431E1
:104A1000084410A941F8260018E0304600F016FBC3
:104A20007D492431085810A941F826007A48C07DF4
:104A300030B910A850F826107CA0FBF7F3FA05E077
:104A400010A850F826107AA0FBF7ECFA9DF81C008D
:104A5000401EB04202D078A0FBF7E4FA701CC6B248
:104A60009DF81C008642B6DB74A0FBF7DBFA00F071
:104A70003DFB6948407D0B280DD2DFE800F0060DB4
:104A8000151E27323F4E5F7287006349096851F84F
:104A900034008047054690E05F4A126852F83410AF
:104AA00010988847054688E05B4B1B6853F8342014
:104AB000DDE91001904705467FE0574F3F6857F802
:104AC000343010A807C89847054676E0DFF848C19B
:104AD000DCF800C05CF8347010A80FC8B847054671
:104AE0006BE01498DFF830C10090DCF800C05CF88F
:104AF000347010A80FC8B84705465EE0DDE9140120
:104B0000DFF814C1CDE90001DCF800C05CF83470B6
:104B100010A80FC8B84705464FE0DDE914121698F3
:104B2000DFF8F4C0CDE900120290DCF800C05CF8B8
:104B3000347010A80FC8B84705463EE0DDE91423DD
